:1000000045C0000060C000005EC000005CC0000091
:100010005AC0000058C0000056C0000054C0000084
:1000200052C0000050C000004EC000004CC0000094
:100030004AC0000048C0000046C0000044C00000A4
:100040009DC1000040C000003EC000003CC0000058
:100050003AC0000038C0000036C0000034C00000C4
:1000600032C0000030C000002EC000002CC00000D4
:100070002AC0000028C0000026C0000024C00000E4
:1000800022C0000020C000001EC0000011241FBEBE
:10009000CFEFD0E1DEBFCDBF11E0A0E0B1E0EAE3F9
:1000A000F5E000E00BBF02C007900D92AA30B10747
:1000B000D9F721E0AAE0B1E001C01D92A131B20759
:1000C000E1F786D138C29CCF80910A0190910B0153
:1000D000A0910C01B0910D010196A11DB11D80935D
:1000E0000A0190930B01A0930C01B0930D010895A8
:1000F00060910A0170910B0180910C0190910D01AA
:100100000895FC01CB017183608353834283248370
:1001100031E03583622F70E040E050E0CDC10895BA
:10012000CF93DF93EC016C8170E08A819B81E1D1F8
:10013000982F81110BC08D81813041F4E3ECF9E0FF
:100140003197F1F700C000001D8212C0992369F0B9
:100150008D8181110CC083EC99E00197F1F700C00B
:10016000000081E08D8382E003C080E001C080E078
:10017000DF91CF9108958FEF82B980936100089548
:10018000CF93DF93CDB7DEB72A970FB6F894DEBFD3
:100190000FBECDBFAC018AE0E0E0F1E0DE011196D8
:1001A00001900D928A95E1F780910E0190E0019601
:1001B00083709078992324F401978C6F9F6F019638
:1001C00080930E0183B1806F83B980910E018130DD
:1001D00009F43EC038F0823009F46AC0833009F473
:1001E00095C0B8C09A0136952795369527953695CE
:1001F0002795A5ECB0E290D1AC01529542954F7095
:1002000045275F7045279A01ADECBCEC85D19695EA
:10021000879596958795969587959C01220F331F14
:10022000880F991F880F991F880F991F820F931F9E
:100230009A01281B390BE1E0F0E0EC0FFD1FE20F03
:10024000F31F80818093620083B18F7E83B982C067
:100250009A013695279536952795ABE7B4E15CD1A1
:10026000AC01569547959A01ADECBCEC55D19695ED
:10027000879596958795969587959C01220F331FB4
:10028000880F991F880F991F880F991F820F931F3E
:100290009A01281B390BE1E0F0E0EC0FFD1FE20FA3
:1002A000F31F80818093620083B18F7D83B952C038
:1002B0009A01ADECBCEC30D1AC0156954795569502
:1002C0004795569547959A0127D196958795969586
:1002D0008795969587959C01220F331F880F991F4C
:1002E000880F991F880F991F820F931F9A01281B4F
:1002F000390BE1E0F0E0EC0FFD1FE20FF31F80810E
:100300008093620083B18F7B83B924C09A01ADECE6
:10031000BCEC02D19695879596958795969587958D
:100320009C01220F331F880F991F880F991F880F78
:10033000991F820F931F9A01281B390BE1E0F0E00F
:10034000EC0FFD1FE20FF31F80818093620083B1E9
:100350008F7783B92A960FB6F894DEBF0FBECDBF54
:10036000DF91CF9108959093100180930F0108952C
:1003700080910F019091100103CF08951F920F9269
:100380000FB60F9211240BB60F922F933F934F93FA
:100390005F936F937F938F939F93AF93BF93EF93ED
:1003A000FF93E6DF82E882BF8FDEFF91EF91BF917E
:1003B000AF919F918F917F916F915F914F913F91FD
:1003C0002F910F900BBE0F900FBE0F901F9018959E
:1003D000CF93DF93CDB7DEB72C970FB6F894DEBF7F
:1003E0000FBECDBFC8DE8FD0789420E049E350E047
:1003F0006AE370E0CE01019684DE21E049E350E03B
:100400006AE370E0CE0107967CDE10E00F2EFFE875
:10041000EF2EFCE0FF2EF02D812C912C5401113099
:10042000A9F018F01230D9F020C0CE01019678DE84
:10043000823031F0CE01079673DE823021F402C0A3
:1004400011E001C012E0C7018EDF0FC0CE0101969E
:1004500067DE823009F410E0C70185DF06C0CE01F7
:1004600001965EDE823009F410E0113039F018F0A8
:100470001230E1F0D4CFC70176DFD1CF39DEDC0115
:10048000CB0188199909AA09BB09893E9340A105A6
:10049000B10508F4C4CF2CDE4B015C0167018FEF7E
:1004A000C81AD80AC7015FDF7601B9CF80E090E0B3
:1004B0005ADFE12CF12CB3CFFC01413059F42081FB
:1004C00081E090E002C0880F991F6A95E2F7822BC5
:1004D00080830895808121E030E002C0220F331F25
:1004E0006A95E2F791E0232B09F090E0982390833E
:1004F0000895FC01808190E002C0959587956A95EA
:10050000E2F78170089583B7856083BF87B7816004
:1005100087BF82E882BF0895A29FB001B39FC00148
:10052000A39F700D811D1124911DB29F700D811D1F
:0A0530001124911D0895F894FFCFE7
:0A053A003F065B4F666D7D077F678B
:00000001FF
