:1000000045C0000060C000005EC000005CC0000091
:100010005AC0000058C0000056C0000054C0000084
:1000200052C00000E9C200004EC000004CC00000F9
:100030004AC0000048C0000046C0000044C00000A4
:10004000B1C2000040C000003EC000003CC0000043
:100050003AC0000038C0000036C0000034C00000C4
:1000600032C0000030C000002EC000002CC00000D4
:100070002AC0000028C0000026C0000024C00000E4
:1000800022C0000020C000001EC0000011241FBEBE
:10009000CFEFD0E1DEBFCDBF11E0A0E0B1E0E6E3FD
:1000A000F7E000E00BBF02C007900D92AC30B10743
:1000B000D9F721E0ACE0B1E001C01D92A632B20751
:1000C000E1F7C1D236C39CCF1092140110921301F4
:1000D00010921F0110921E0110921D0160D120E0AC
:1000E00049E350E06AE370E080E291E01ED121E054
:1000F00049E350E06AE370E087E191E016D1CED2A7
:10010000D6C2089540911301509114014F5F5F4F83
:100110009A01369527953695279536952795A5EC1E
:10012000B0E2E4D2929582958F7089279F708927DB
:1001300068EE73E0869F9001879F300D969F300D8B
:100140001124CA01821B930B909314018093130115
:10015000892BF9F480911F0190E001966CE370E027
:10016000B2D280931F01811114C080911E0190E0D2
:1001700001966CE370E0A7D280931E01811109C043
:1001800080911D0190E0019668E170E09CD280931F
:100190001D01089580910001813069F018F08230CE
:1001A000C9F0089580E291E0CFD08230D9F481E0A7
:1001B00080930001089580E291E0C6D0823011F46E
:1001C0001092000187E191E0BFD0823059F4809312
:1001D0000001089580E291E0B7D0823019F481E007
:1001E00080930001089580910001813009F442C09C
:1001F00020F0823009F47AC0089590911E018DECB0
:10020000989F812D1124869586958695880F282F95
:10021000220F220F820F981B28EE33E0929FB0012D
:10022000939F700D112420911F0130E0A901440F0C
:10023000551F220F331F220F331F220F331F240F8E
:10024000351FAB01420F531F209113013091140150
:100250003695279536952795ABE7B4E147D2969525
:100260008795840F951F90931601809315018FD168
:1002700049CF089590911E018DEC989F812D1124F6
:10028000869586958695880F282F220F220F820F3C
:10029000981B28EE33E0929FB001939F700D1124BC
:1002A00020911F0130E0A901440F551F220F331F79
:1002B000220F331F220F331F240F351FAB01420FB4
:1002C000531F2091130130911401369527953695CF
:1002D0002795ABE7B4E10AD296958795840F951FD1
:1002E000909316018093150152C108951092160142
:1002F0001092150108958091000190E04BDF73CFBB
:10030000089580910C0190910D01A0910E01B09182
:100310000F010196A11DB11D80930C0190930D0159
:10032000A0930E01B0930F010895FC01CB017183DE
:10033000608353834283248331E03583622F70E0EE
:1003400040E050E084C10895CF93DF93EC016C81CD
:1003500070E08A819B8198D1982F81110BC08D818B
:10036000813041F4E3ECF9E03197F1F700C000008F
:100370001D8212C0992369F08D8181110CC083EC1C
:1003800099E00197F1F700C0000081E08D8382E0E1
:1003900003C080E001C080E0DF91CF9108958FEF2E
:1003A00082B9809361000895CF93DF93CDB7DEB714
:1003B0002A970FB6F894DEBF0FBECDBFAC018AE01E
:1003C000E1E0F1E0DE01119601900D928A95E1F7EE
:1003D0008091100190E0019683709078992324F425
:1003E00001978C6F9F6F01968093100183B1806F8E
:1003F00083B980911001813009F43EC038F0823019
:1004000009F46AC0833009F495C0B8C09A013695E2
:1004100027953695279536952795A5ECB0E266D1B8
:10042000AC01529542954F7045275F7045279A0160
:10043000ADECBCEC5BD19695879596958795969596
:1004400087959C01220F331F880F991F880F991FD2
:10045000880F991F820F931F9A01281B390BE1E027
:10046000F0E0EC0FFD1FE20FF31F8081809362002C
:1004700083B18F7E83B982C09A01369527953695D0
:100480002795ABE7B4E132D1AC01569547959A0177
:10049000ADECBCEC2BD19695879596958795969566
:1004A00087959C01220F331F880F991F880F991F72
:1004B000880F991F820F931F9A01281B390BE1E0C7
:1004C000F0E0EC0FFD1FE20FF31F808180936200CC
:1004D00083B18F7D83B952C09A01ADECBCEC06D1DB
:1004E000AC015695479556954795569547959A016F
:1004F000FDD09695879596958795969587959C01BD
:10050000220F331F880F991F880F991F880F991F7B
:10051000820F931F9A01281B390BE1E0F0E0EC0FEA
:10052000FD1FE20FF31F80818093620083B18F7BF8
:1005300083B924C09A01ADECBCECD8D096958795D0
:1005400096958795969587959C01220F331F880F66
:10055000991F880F991F880F991F820F931F9A0167
:10056000281B390BE1E0F0E0EC0FFD1FE20FF31F59
:1005700080818093620083B18F7783B92A960FB60A
:10058000F894DEBF0FBECDBFDF91CF910895909359
:10059000120180931101089580911101909112012F
:1005A00003CF08951F920F920FB60F9211240BB62E
:1005B0000F922F933F934F935F936F937F938F93FC
:1005C0009F93AF93BF93EF93FF93E6DF83E882BFE0
:1005D00098DEFF91EF91BF91AF919F918F917F91A5
:1005E0006F915F914F913F912F910F900BBE0F90A4
:1005F0000FBE0F901F9018951F920F920FB60F927B
:1006000011240BB60F922F933F934F935F936F93E9
:100610007F938F939F93AF93BF93EF93FF9372DD7D
:10062000FF91EF91BF91AF919F918F917F916F91CA
:100630005F914F913F912F910F900BBE0F900FBE86
:100640000F901F90189540DD789455DEFECFFC0189
:10065000413059F4208181E090E002C0880F991F59
:100660006A95E2F7822B80830895808121E030E053
:1006700002C0220F331F6A95E2F791E0232B09F0A5
:1006800090E0982390830895FC01808190E002C05F
:10069000959587956A95E2F78170089583B785608F
:1006A00083BF87B7816087BF83E882BF089585B520
:1006B000836085BD85B5886085BD87B7806887BF45
:1006C00089EF83BD089597FB072E16F4009406D09A
:1006D00077FD08D01AD007FC05D03EF4909581959F
:1006E0009F4F0895709561957F4F0895A29FB00127
:1006F000B39FC001A39F700D811D1124911DB29F56
:10070000700D811D1124911D0895AA1BBB1B51E181
:1007100007C0AA1FBB1FA617B70710F0A61BB70B71
:10072000881F991F5A95A9F780959095BC01CD0116
:060730000895F894FFCFCC
:0C073600013F065B4F666D7D077F67008A
:00000001FF
