S00D0000436C6F636B2E737265632B
S113000045C0000060C000005EC000005CC000008D
S11300105AC0000058C0000056C0000054C0000080
S113002052C000002EC200004EC000004CC00000B0
S11300304AC0000048C0000046C0000044C00000A0
S1130040F6C1000040C000003EC000003CC00000FB
S11300503AC0000038C0000036C0000034C00000C0
S113006032C0000030C000002EC000002CC00000D0
S11300702AC0000028C0000026C0000024C00000E0
S113008022C0000020C000001EC0000011241FBEBA
S1130090CFEFD0E1DEBFCDBF11E0A0E0B1E0E2E7F9
S11300A0F5E000E00BBF02C007900D92AA30B10743
S11300B0D9F721E0AAE0B1E001C01D92A931B2074D
S11300C0E1F706D254C29CCF10921401109213018E
S11300D01092180183E08093170187E090E09093D9
S11300E0160180931501A5D0F7D1FFC10895409161
S11300F01301509114014F5F5F4F9A013695279574
S11301003695279536952795A5ECB0E20DD29295B4
S113011082958F7089279F70892768EE73E0869F88
S11301209001879F300D969F300D1124CA01821BC8
S1130130930B9093140180931301892BC1F5809143
S1130140180190E001966CE370E0DBD18093180114
S113015081112DC08091170190E001966CE370E04D
S1130160D0D180931701811122C040911501509183
S113017016014F5F5F4F9A01ABEABAEAD5D1929567
S113018082958F7089279F7089279C01220F331FC6
S1130190820F931F880F991F880F991F880F991F2B
S11301A09A01281B390B30931601209315010895E9
S11301B0209115013091160188EE93E0289FA0014B
S11301C0299F500D389F500D112490911701292F0C
S11301D030E0C901880F991F220F331F220F331FEC
S11301E0220F331F280F391F240F351F9091180138
S11301F08DEC989F912D1124969596959695A9012D
S1130200490F511DCA011AC0089580910A019091A5
S11302100B01A0910C01B0910D010196A11DB11D1E
S113022080930A0190930B01A0930C01B0930D01EC
S113023008958FEF82B9809361000895CF93DF937F
S1130240CDB7DEB72A970FB6F894DEBF0FBECDBF89
S1130250AC018AE0E0E0F1E0DE01119601900D923C
S11302608A95E1F780910E0190E001968370907871
S1130270992324F401978C6F9F6F019680930E014C
S113028083B1806F83B980910E01813009F43EC03F
S113029038F0823009F46AC0833009F495C0B8C0DC
S11302A09A01369527953695279536952795A5EC89
S11302B0B0E23AD1AC01529542954F7045275F7038
S11302C045279A01ADECBCEC2FD196958795969570
S11302D08795969587959C01220F331F880F991F48
S11302E0880F991F880F991F820F931F9A01281B4B
S11302F0390BE1E0F0E0EC0FFD1FE20FF31F80810A
S11303008093620083B18F7E83B982C09A0136954F
S1130310279536952795ABE7B4E106D1AC01569500
S113032047959A01ADECBCECFFD0969587959695D0
S11303308795969587959C01220F331F880F991FE7
S1130340880F991F880F991F820F931F9A01281BEA
S1130350390BE1E0F0E0EC0FFD1FE20FF31F8081A9
S11303608093620083B18F7D83B952C09A01ADEC52
S1130370BCECDAD0AC015695479556954795569501
S113038047959A01D1D09695879596958795969598
S113039087959C01220F331F880F991F880F991F7F
S11303A0880F991F820F931F9A01281B390BE1E0D4
S11303B0F0E0EC0FFD1FE20FF31F808180936200D9
S11303C083B18F7B83B924C09A01ADECBCECACD073
S11303D09695879596958795969587959C01220F76
S11303E0331F880F991F880F991F880F991F820F39
S11303F0931F9A01281B390BE1E0F0E0EC0FFD1F7D
S1130400E20FF31F80818093620083B18F7783B9F9
S11304102A960FB6F894DEBF0FBECDBFDF91CF9101
S1130420089580910F019091100108CF08951F92B3
S11304300F920FB60F9211240BB60F922F933F9386
S11304404F935F936F937F938F939F93AF93BF93D8
S1130450EF93FF93E6DF83E882BFD7DEFF91EF914E
S1130460BF91AF919F918F917F916F915F914F91C8
S11304703F912F910F900BBE0F900FBE0F901F90C6
S113048018951F920F920FB60F9211240BB60F926C
S11304902F933F934F935F936F937F938F939F9388
S11304A0AF93BF93EF93FF9322DEFF91EF91BF9140
S11304B0AF919F918F917F916F915F914F913F91F8
S11304C02F910F900BBE0F900FBE0F901F90189599
S11304D0FBDD78946DDEFECF83B7856083BF87B77D
S11304E0816087BF83E882BF089585B5836085BD39
S11304F085B5886085BD87B7806887BF89EF83BD70
S1130500089597FB072E16F4009406D077FD08D0C3
S11305101AD007FC05D03EF4909581959F4F08951D
S1130520709561957F4F0895A29FB001B39FC0015C
S1130530A39F700D811D1124911DB29F700D811D0B
S11305401124911D0895AA1BBB1B51E107C0AA1FCA
S1130550BB1FA617B70710F0A61BB70B881F991F60
S11305605A95A9F780959095BC01CD010895F8940A
S1050570FFCFB7
S10D05723F065B4F666D7D077F674F
S9030000FC
