:1000000045C0000053C0000051C000004FC00000B8
:100010004DC000004BC0000049C0000047C00000B8
:1000200045C0000043C0000041C000003FC00000C8
:100030003DC000003BC0000039C0000037C00000D8
:1000400035C0000033C0000031C000002FC00000E8
:100050002DC000002BC0000029C0000027C00000F8
:1000600025C0000023C0000021C000001FC0000008
:100070001DC000001BC0000019C0000017C0000018
:1000800015C0000013C0000011C0000011241FBEE5
:10009000CFEFD0E1DEBFCDBF21E0A0E0B1E001C0F5
:1000A0001D92AD30B207E1F7F0D025C1A9CF81E3B1
:1000B00090E0E3D020E049E350E06AE370E087E0BD
:1000C00091E0A4D021E049E350E06AE370E081E0F0
:1000D00091E09CD01092000108958091000182303F
:1000E00071F128F4882349F08130C9F008958330F4
:1000F000B9F1843009F445C0089587E091E093D0C8
:10010000823021F481E080930001089581E091E044
:100110008AD0823009F044C010920001089587E02F
:1001200091E081D0823019F480930001089581E03C
:1001300091E079D08230A1F510920001089587E016
:1001400091E071D0823021F483E080930001089522
:1001500081E091E068D0823019F510920001089595
:1001600087E091E060D0823021F484E08093000148
:10017000089581E091E057D0823091F4109200010F
:10018000089587E091E04FD0823019F41092000179
:10019000089581E091E047D0823011F4109200017F
:1001A000089560E082E390E06DC0089563E082E32B
:1001B00090E066C008956FE082E390E061C008952A
:1001C0006FE382E390E05CC008956FEF82E390E01C
:1001D00057C0089580910001823079F028F4882377
:1001E00041F0813041F00895833049F0843049F086
:1001F0000895D7CF0895DACF0895DDCF0895E0CFE1
:100200000895E3CF089569DFE5CF0895FC01CB01A0
:100210007183608353834283248331E0358340E0DC
:10022000622F3FC00895CF93DF93EC016C818A81E8
:100230009B8157D0982F81110BC08D81813041F463
:10024000E3ECF9E03197F1F700C000001D8212C025
:10025000992369F08D8181110CC083EC99E001979D
:10026000F1F700C0000081E08D8382E003C080E0F0
:1002700001C080E0DF91CF91089561E009C0089549
:100280002DC0089560E02AC0089511DFBCDFFECFC5
:10029000613021F42FEFFC0120830895FC011082CE
:1002A0000895FC01413059F4208181E090E002C0C2
:1002B000880F991F6A95E2F7822B808308958081C9
:1002C00021E030E002C0220F331F6A95E2F791E08F
:1002D000232B09F090E0982390830895FC0160831C
:1002E0000895FC01808190E002C0959587956A95FC
:0A02F000E2F781700895F894FFCF43
:00000001FF
