S01400007374616E644C6967687441702E737265634D
S113000045C0000060C000005EC000005CC000008D
S11300105AC0000058C0000056C0000054C0000080
S113002052C0000050C000004EC000004CC0000090
S11300304AC0000048C0000046C0000044C00000A0
S113004042C0000040C000003EC000003CC00000B0
S11300503AC0000038C0000036C0000034C00000C0
S113006032C0000030C000002EC000002CC00000D0
S11300702AC0000028C0000026C0000024C00000E0
S113008022C0000020C000001EC0000011241FBEBA
S1130090CFEFD0E1DEBFCDBF11E0A0E0B1E0E0E8FA
S11300A0F2E000E00BBF02C007900D92A230B1074E
S11300B0D9F721E0A2E0B1E001C01D92AF30B20750
S11300C0E1F7D9D0DBC09CCFD2D020E049E350E0A7
S11300D06AE370E083E091E089D021E049E350E0F5
S11300E06AE370E089E091E081C0089580910001A5
S11300F0823009F43AC028F4882351F08130F9F0B1
S11301000895833009F447C0843009F45AC008952F
S113011083E080930201ADD083E091E07CD0823013
S113012021F481E080930001089589E091E073D087
S1130130823009F05AC084E08093000108958FE072
S11301408093020196D083E091E065D0823019F467
S113015080930001089589E091E05DD0823009F038
S113016044C084E08093000108958FE380930201EA
S113017080D083E091E04FD0823021F483E08093FB
S11301800001089589E091E046D0823071F584E061
S11301908093000108958FEF809302016AD083E079
S11301A091E039D0823021F484E0809300010895F5
S11301B089E091E030D08230C1F484E08093000182
S11301C008951092020180E054D083E091E023D09E
S11301D0823019F410920001089589E091E01BD057
S11301E0823019F484E0809300010895FC01718346
S11301F0608353834283248381E08583FB013081C0
S113020081E090E002C0880F991F2A95E2F780955B
S1130210832380830895FC01A281B3818C9121E022
S113022030E0048002C0220F331F0A94E2F728232F
S113023059F48581813041F4AFE9BFE01197F1F7BA
S113024000C0000015820895222369F08581811180
S11302500CC08FE99FE00197F1F700C0000081E036
S1130260858382E0089580E0089580E0089511BABE
S1130270089582BB089528DF39DFFECFF894FFCFBD
S1050280040074
S9030000FC
