:1000000045C0000060C000005EC000005CC0000091
:100010005AC0000058C0000056C0000054C0000084
:1000200052C0000050C000004EC000004CC0000094
:100030004AC0000048C0000046C0000044C00000A4
:1000400046C1000040C000003EC000003CC00000AF
:100050003AC0000038C0000036C0000034C00000C4
:1000600032C0000030C000002EC000002CC00000D4
:100070002AC0000028C0000026C0000024C00000E4
:1000800022C0000020C000001EC0000011241FBEBE
:10009000CFEFD0E1DEBFCDBF11E0A0E0B1E0E2E7FD
:1000A000F3E000E00BBF02C007900D92AA30B10749
:1000B000D9F721E0AAE0B1E001C01D92AD30B2074E
:1000C000E1F72ED154C19CCF8FEF82B980936100AC
:1000D0000895CF93DF93CDB7DEB72A970FB6F89484
:1000E000DEBF0FBECDBFAC018AE0E0E0F1E0DE0193
:1000F000119601900D928A95E1F780910A0190E0A6
:10010000019683709078992324F401978C6F9F6FE8
:10011000019680930A0183B1806F83B980910A01AF
:10012000813009F43EC038F0823009F46AC083306F
:1001300009F495C0B8C09A0136952795369527954C
:1001400036952795A5ECB0E203D1AC0152954295C6
:100150004F7045275F7045279A01ADECBCECF8D095
:100160009695879596958795969587959C01220FEC
:10017000331F880F991F880F991F880F991F820FAF
:10018000931F9A01281B390BE1E0F0E0EC0FFD1FF3
:10019000E20FF31F80818093620083B18F7E83B969
:1001A00082C09A013695279536952795ABE7B4E13D
:1001B000CFD0AC01569547959A01ADECBCECC8D0B8
:1001C0009695879596958795969587959C01220F8C
:1001D000331F880F991F880F991F880F991F820F4F
:1001E000931F9A01281B390BE1E0F0E0EC0FFD1F93
:1001F000E20FF31F80818093620083B18F7D83B90A
:1002000052C09A01ADECBCECA3D0AC015695479519
:1002100056954795569547959A019AD09695879504
:1002200096958795969587959C01220F331F880F89
:10023000991F880F991F880F991F820F931F9A018A
:10024000281B390BE1E0F0E0EC0FFD1FE20FF31F7C
:1002500080818093620083B18F7B83B924C09A012F
:10026000ADECBCEC75D0969587959695879596954F
:1002700087959C01220F331F880F991F880F991FA4
:10028000880F991F820F931F9A01281B390BE1E0F9
:10029000F0E0EC0FFD1FE20FF31F808180936200FE
:1002A00083B18F7783B92A960FB6F894DEBF0FBE5D
:1002B000CDBFDF91CF91089590930C0180930B01F6
:1002C000089580910B0190910C0103CF08951F9226
:1002D0000F920FB60F9211240BB60F922F933F93EC
:1002E0004F935F936F937F938F939F93AF93BF933E
:1002F000EF93FF93E6DF82E882BFFF91EF91BF911A
:10030000AF919F918F917F916F915F914F913F91AD
:100310002F910F900BBE0F900FBE0F901F9018954E
:10032000D3DE83B7856083BF87B7816087BF78944A
:100330008FE89CE0EC012196BFDF2FEF83ED90E387
:10034000215080409040E1F700C00000CE01F2CF84
:10035000A29FB001B39FC001A39F700D811D112406
:10036000911DB29F700D811D1124911D0895F89467
:02037000FFCFBD
:0A0372003F065B4F666D7D077F6755
:00000001FF
